:0C021900C0F9A4B0999282F88090FF40D8
:0C020C00040A0A0A0A0A0108000109009D
:0D01FF0053B10F43B2F053B00F75A0FF22B3
:10017D0053B00FEF24FE600E14600F1460102403B3
:10018D00700ED2B4800AD2B58006D2B68002D2B734
:0F019D0074192DF58274023CF583E493F5A022CA
:1001480075A0FF740A2508F8E6FEB40A12E509C38B
:100158009404500BE508045403F508050980E4E409
:10016800F509E50804FFEEFD7C0012017DE50804B1
:040178005403F5082F
:01017C002260
:09022F00AE0574092FF8A60622A1
:1001EE00E4FF2090010F2091027F022092027F03F4
:0101FE0022DE
:1001C3008515141201EE8F15E51465156007E51505
:0501D300700385141605
:0101D8002204
:09022500E5166005FFE4F5162260
:01022E0022AD
:1001D900EF1FAC0670011E4C600A7D017CF8DCFE45
:0401E900DDFC80ECCD
:0101ED0022EF
:1001AC005389F0438901758A18758CFCC28DD28CE9
:0701BC00D2A9D2AFC2B922A3
:100110001201AC1201FF1202258F12E5126016B413
:100120000103751301E512B40203751302E512B45D
:100130000303751303E513FD7C007F0112022F7F7B
:080140000A7E001201D980CEF5
:03000B0002009A56
:10009A00C0E0C0F0C083C082C0D075D000C000C02C
:0D00AA0001C002C003C004C005C006C007AD
:1000B700758A18758CFC050FE50F7002050E051182
:1000C700E51170020510C3E50F9402E50E94004098
:1000D70009750E00750F00120148C3E5119414E568
:0E00E70010940040097510007511001201C33D
:1000F500D007D006D005D004D003D002D001D0005F
:0B010500D0D0D082D083D0F0D0E03208
:0300000002000EED
:0C000E00787FE4F6D8FD758116020055DD
:10001A00020110E493A3F8E493A34003F68001F2EB
:10002A0008DFF48029E493A3F85407240CC8C333E7
:10003A00C4540F4420C8834004F456800146F6DFB6
:10004A00E4800B010204081020408090020CE47E38
:10005A00019360BCA3FF543F30E509541FFEE493AB
:10006A00A360010ECF54C025E060A840B8E493A372
:10007A00FAE493A3F8E493A3C8C582C8CAC583CA9D
:10008A00F0A3C8C582C8CAC583CADFE9DEE780BE55
:0102180000E5
:00000001FF
